{
  "abi": [
    {
      "inputs": [],
      "stateMutability": "nonpayable",
      "type": "constructor"
    },
    {
      "anonymous": false,
      "inputs": [
        {
          "components": [
            {
              "internalType": "uint256",
              "name": "id",
              "type": "uint256"
            },
            {
              "internalType": "string",
              "name": "name",
              "type": "string"
            },
            {
              "internalType": "string",
              "name": "fullname",
              "type": "string"
            },
            {
              "internalType": "string",
              "name": "description",
              "type": "string"
            },
            {
              "internalType": "uint256",
              "name": "ownerId",
              "type": "uint256"
            },
            {
              "internalType": "uint256",
              "name": "size",
              "type": "uint256"
            },
            {
              "internalType": "string",
              "name": "default_branch",
              "type": "string"
            },
            {
              "internalType": "string[]",
              "name": "topics",
              "type": "string[]"
            },
            {
              "internalType": "string",
              "name": "language",
              "type": "string"
            }
          ],
          "indexed": false,
          "internalType": "struct Sadaiv.Repository",
          "name": "repository",
          "type": "tuple"
        },
        {
          "components": [
            {
              "internalType": "string",
              "name": "branch",
              "type": "string"
            },
            {
              "internalType": "string",
              "name": "commitMessage",
              "type": "string"
            },
            {
              "internalType": "string",
              "name": "commitHash",
              "type": "string"
            },
            {
              "internalType": "string",
              "name": "cid",
              "type": "string"
            }
          ],
          "indexed": false,
          "internalType": "struct Sadaiv.Build",
          "name": "build",
          "type": "tuple"
        },
        {
          "components": [
            {
              "internalType": "uint256",
              "name": "builderId",
              "type": "uint256"
            },
            {
              "internalType": "string",
              "name": "builderName",
              "type": "string"
            },
            {
              "internalType": "string",
              "name": "builderAvatarUrl",
              "type": "string"
            }
          ],
          "indexed": false,
          "internalType": "struct Sadaiv.Contributor",
          "name": "contributor",
          "type": "tuple"
        }
      ],
      "name": "NewBuildCreated",
      "type": "event"
    },
    {
      "anonymous": false,
      "inputs": [
        {
          "indexed": false,
          "internalType": "uint256",
          "name": "githubId",
          "type": "uint256"
        },
        {
          "indexed": false,
          "internalType": "address",
          "name": "walletAddress",
          "type": "address"
        }
      ],
      "name": "VerifiedBuilder",
      "type": "event"
    },
    {
      "inputs": [
        {
          "internalType": "uint256",
          "name": "",
          "type": "uint256"
        }
      ],
      "name": "builderMapping",
      "outputs": [
        {
          "internalType": "address",
          "name": "",
          "type": "address"
        }
      ],
      "stateMutability": "view",
      "type": "function"
    },
    {
      "inputs": [
        {
          "components": [
            {
              "internalType": "uint256",
              "name": "id",
              "type": "uint256"
            },
            {
              "internalType": "string",
              "name": "name",
              "type": "string"
            },
            {
              "internalType": "string",
              "name": "fullname",
              "type": "string"
            },
            {
              "internalType": "string",
              "name": "description",
              "type": "string"
            },
            {
              "internalType": "uint256",
              "name": "ownerId",
              "type": "uint256"
            },
            {
              "internalType": "uint256",
              "name": "size",
              "type": "uint256"
            },
            {
              "internalType": "string",
              "name": "default_branch",
              "type": "string"
            },
            {
              "internalType": "string[]",
              "name": "topics",
              "type": "string[]"
            },
            {
              "internalType": "string",
              "name": "language",
              "type": "string"
            }
          ],
          "internalType": "struct Sadaiv.Repository",
          "name": "repo",
          "type": "tuple"
        },
        {
          "components": [
            {
              "internalType": "string",
              "name": "branch",
              "type": "string"
            },
            {
              "internalType": "string",
              "name": "commitMessage",
              "type": "string"
            },
            {
              "internalType": "string",
              "name": "commitHash",
              "type": "string"
            },
            {
              "internalType": "string",
              "name": "cid",
              "type": "string"
            }
          ],
          "internalType": "struct Sadaiv.Build",
          "name": "build",
          "type": "tuple"
        },
        {
          "components": [
            {
              "internalType": "uint256",
              "name": "builderId",
              "type": "uint256"
            },
            {
              "internalType": "string",
              "name": "builderName",
              "type": "string"
            },
            {
              "internalType": "string",
              "name": "builderAvatarUrl",
              "type": "string"
            }
          ],
          "internalType": "struct Sadaiv.Contributor",
          "name": "contributor",
          "type": "tuple"
        }
      ],
      "name": "createBuild",
      "outputs": [],
      "stateMutability": "nonpayable",
      "type": "function"
    },
    {
      "inputs": [
        {
          "internalType": "address",
          "name": "newOwner",
          "type": "address"
        }
      ],
      "name": "delegateOwnership",
      "outputs": [],
      "stateMutability": "nonpayable",
      "type": "function"
    },
    {
      "inputs": [
        {
          "internalType": "uint256",
          "name": "githubId",
          "type": "uint256"
        }
      ],
      "name": "verifyBuilder",
      "outputs": [],
      "stateMutability": "nonpayable",
      "type": "function"
    }
  ],
  "bytecode": "608060405234801561001057600080fd5b50600080546001600160a01b0319163317905561098d806100326000396000f3fe608060405234801561001057600080fd5b506004361061004c5760003560e01c80636e3dc56814610051578063bb1c2edc14610066578063c2f9b09414610079578063c45f60c9146100be575b600080fd5b61006461005f366004610245565b6100d1565b005b61006461007436600461025e565b61014c565b6100a2610087366004610245565b6001602052600090815260409020546001600160a01b031681565b6040516001600160a01b03909116815260200160405180910390f35b6100646100cc36600461057e565b6101bc565b6000818152600160205260409020546001600160a01b03166100f05750565b60008181526001602090815260409182902080546001600160a01b031916339081179091558251848152918201527fb4273f4afbc608f4f3f18a565223db4172b1a15790ca8b9842517338ba192031910160405180910390a150565b6000546001600160a01b0316331461019a5760405162461bcd60e51b815260206004820152600c60248201526b2737ba1030b71037bbb732b960a11b60448201526064015b60405180910390fd5b600080546001600160a01b0319166001600160a01b0392909216919091179055565b6000546001600160a01b031633146102055760405162461bcd60e51b815260206004820152600c60248201526b2737ba1030b71037bbb732b960a11b6044820152606401610191565b7f468c96f85592da969eec95b5219313cea1e1bc140b9373aea1947fd8940b046f8383836040516102389392919061084d565b60405180910390a1505050565b60006020828403121561025757600080fd5b5035919050565b60006020828403121561027057600080fd5b81356001600160a01b038116811461028757600080fd5b9392505050565b634e487b7160e01b600052604160045260246000fd5b6040516080810167ffffffffffffffff811182821017156102c7576102c761028e565b60405290565b604051610120810167ffffffffffffffff811182821017156102c7576102c761028e565b604051601f8201601f1916810167ffffffffffffffff8111828210171561031a5761031a61028e565b604052919050565b600082601f83011261033357600080fd5b813567ffffffffffffffff81111561034d5761034d61028e565b610360601f8201601f19166020016102f1565b81815284602083860101111561037557600080fd5b816020850160208301376000918101602001919091529392505050565b600082601f8301126103a357600080fd5b8135602067ffffffffffffffff808311156103c0576103c061028e565b8260051b6103cf8382016102f1565b93845285810183019383810190888611156103e957600080fd5b84880192505b85831015610425578235848111156104075760008081fd5b6104158a87838c0101610322565b83525091840191908401906103ef565b98975050505050505050565b60006080828403121561044357600080fd5b61044b6102a4565b9050813567ffffffffffffffff8082111561046557600080fd5b61047185838601610322565b8352602084013591508082111561048757600080fd5b61049385838601610322565b602084015260408401359150808211156104ac57600080fd5b6104b885838601610322565b604084015260608401359150808211156104d157600080fd5b506104de84828501610322565b60608301525092915050565b6000606082840312156104fc57600080fd5b6040516060810167ffffffffffffffff82821081831117156105205761052061028e565b8160405282935084358352602085013591508082111561053f57600080fd5b61054b86838701610322565b6020840152604085013591508082111561056457600080fd5b5061057185828601610322565b6040830152505092915050565b60008060006060848603121561059357600080fd5b833567ffffffffffffffff808211156105ab57600080fd5b9085019061012082880312156105c057600080fd5b6105c86102cd565b823581526020830135828111156105de57600080fd5b6105ea89828601610322565b60208301525060408301358281111561060257600080fd5b61060e89828601610322565b60408301525060608301358281111561062657600080fd5b61063289828601610322565b6060830152506080830135608082015260a083013560a082015260c08301358281111561065e57600080fd5b61066a89828601610322565b60c08301525060e08301358281111561068257600080fd5b61068e89828601610392565b60e08301525061010080840135838111156106a857600080fd5b6106b48a828701610322565b8284015250508095505060208601359150808211156106d257600080fd5b6106de87838801610431565b935060408601359150808211156106f457600080fd5b50610701868287016104ea565b9150509250925092565b6000815180845260005b8181101561073157602081850181015186830182015201610715565b81811115610743576000602083870101525b50601f01601f19169290920160200192915050565b6000815180845260208085019450848260051b860182860160005b8581101561079d57838303895261078b83835161070b565b98850198925090840190600101610773565b5090979650505050505050565b60008151608084526107bf608085018261070b565b9050602083015184820360208601526107d8828261070b565b915050604083015184820360408601526107f2828261070b565b9150506060830151848203606086015261080c828261070b565b95945050505050565b805182526000602082015160606020850152610834606085018261070b565b90506040830151848203604086015261080c828261070b565b60608152835160608201526000602085015161012080608085015261087661018085018361070b565b91506040870151605f19808685030160a0870152610894848361070b565b935060608901519150808685030160c08701526108b1848361070b565b9350608089015160e087015260a08901519150610100828188015260c08a015192508187860301848801526108e6858461070b565b945060e08a0151935081878603016101408801526109048585610758565b9450808a015193505080868503016101608701525050610924828261070b565b915050828103602084015261093981866107aa565b9050828103604084015261094d8185610815565b969550505050505056fea2646970667358221220c1d59a89b47ce5b9d1a4ff0a12bdff95debed94c5858b0aff1a63cd105aa9acb64736f6c634300080c0033",
  "bytecodeSha1": "6f5d2103ce4f087dfd0571650ad79c6c1363a5d5",
  "compiler": {
    "evm_version": "istanbul",
    "optimizer": {
      "enabled": true,
      "runs": 200
    },
    "version": "0.8.12+commit.f00d7308"
  },
  "contractName": "Sadaiv",
  "language": "Solidity",
  "natspec": {
    "kind": "dev",
    "methods": {},
    "version": 1
  },
  "opcodes": "PUSH1 0x80 PUSH1 0x40 MSTORE CALLVALUE DUP1 ISZERO PUSH2 0x10 JUMPI PUSH1 0x0 DUP1 REVERT JUMPDEST POP PUSH1 0x4 CALLDATASIZE LT PUSH2 0x4C JUMPI PUSH1 0x0 CALLDATALOAD PUSH1 0xE0 SHR DUP1 PUSH4 0x6E3DC568 EQ PUSH2 0x51 JUMPI DUP1 PUSH4 0xBB1C2EDC EQ PUSH2 0x66 JUMPI DUP1 PUSH4 0xC2F9B094 EQ PUSH2 0x79 JUMPI DUP1 PUSH4 0xC45F60C9 EQ PUSH2 0xBE JUMPI JUMPDEST PUSH1 0x0 DUP1 REVERT JUMPDEST PUSH2 0x64 PUSH2 0x5F CALLDATASIZE PUSH1 0x4 PUSH2 0x245 JUMP JUMPDEST PUSH2 0xD1 JUMP JUMPDEST STOP JUMPDEST PUSH2 0x64 PUSH2 0x74 CALLDATASIZE PUSH1 0x4 PUSH2 0x25E JUMP JUMPDEST PUSH2 0x14C JUMP JUMPDEST PUSH2 0xA2 PUSH2 0x87 CALLDATASIZE PUSH1 0x4 PUSH2 0x245 JUMP JUMPDEST PUSH1 0x1 PUSH1 0x20 MSTORE PUSH1 0x0 SWAP1 DUP2 MSTORE PUSH1 0x40 SWAP1 KECCAK256 SLOAD PUSH1 0x1 PUSH1 0x1 PUSH1 0xA0 SHL SUB AND DUP2 JUMP JUMPDEST PUSH1 0x40 MLOAD PUSH1 0x1 PUSH1 0x1 PUSH1 0xA0 SHL SUB SWAP1 SWAP2 AND DUP2 MSTORE PUSH1 0x20 ADD PUSH1 0x40 MLOAD DUP1 SWAP2 SUB SWAP1 RETURN JUMPDEST PUSH2 0x64 PUSH2 0xCC CALLDATASIZE PUSH1 0x4 PUSH2 0x57E JUMP JUMPDEST PUSH2 0x1BC JUMP JUMPDEST PUSH1 0x0 DUP2 DUP2 MSTORE PUSH1 0x1 PUSH1 0x20 MSTORE PUSH1 0x40 SWAP1 KECCAK256 SLOAD PUSH1 0x1 PUSH1 0x1 PUSH1 0xA0 SHL SUB AND PUSH2 0xF0 JUMPI POP JUMP JUMPDEST PUSH1 0x0 DUP2 DUP2 MSTORE PUSH1 0x1 PUSH1 0x20 SWAP1 DUP2 MSTORE PUSH1 0x40 SWAP2 DUP3 SWAP1 KECCAK256 DUP1 SLOAD PUSH1 0x1 PUSH1 0x1 PUSH1 0xA0 SHL SUB NOT AND CALLER SWAP1 DUP2 OR SWAP1 SWAP2 SSTORE DUP3 MLOAD DUP5 DUP2 MSTORE SWAP2 DUP3 ADD MSTORE PUSH32 0xB4273F4AFBC608F4F3F18A565223DB4172B1A15790CA8B9842517338BA192031 SWAP2 ADD PUSH1 0x40 MLOAD DUP1 SWAP2 SUB SWAP1 LOG1 POP JUMP JUMPDEST PUSH1 0x0 SLOAD PUSH1 0x1 PUSH1 0x1 PUSH1 0xA0 SHL SUB AND CALLER EQ PUSH2 0x19A JUMPI PUSH1 0x40 MLOAD PUSH3 0x461BCD PUSH1 0xE5 SHL DUP2 MSTORE PUSH1 0x20 PUSH1 0x4 DUP3 ADD MSTORE PUSH1 0xC PUSH1 0x24 DUP3 ADD MSTORE PUSH12 0x2737BA1030B71037BBB732B9 PUSH1 0xA1 SHL PUSH1 0x44 DUP3 ADD MSTORE PUSH1 0x64 ADD JUMPDEST PUSH1 0x40 MLOAD DUP1 SWAP2 SUB SWAP1 REVERT JUMPDEST PUSH1 0x0 DUP1 SLOAD PUSH1 0x1 PUSH1 0x1 PUSH1 0xA0 SHL SUB NOT AND PUSH1 0x1 PUSH1 0x1 PUSH1 0xA0 SHL SUB SWAP3 SWAP1 SWAP3 AND SWAP2 SWAP1 SWAP2 OR SWAP1 SSTORE JUMP JUMPDEST PUSH1 0x0 SLOAD PUSH1 0x1 PUSH1 0x1 PUSH1 0xA0 SHL SUB AND CALLER EQ PUSH2 0x205 JUMPI PUSH1 0x40 MLOAD PUSH3 0x461BCD PUSH1 0xE5 SHL DUP2 MSTORE PUSH1 0x20 PUSH1 0x4 DUP3 ADD MSTORE PUSH1 0xC PUSH1 0x24 DUP3 ADD MSTORE PUSH12 0x2737BA1030B71037BBB732B9 PUSH1 0xA1 SHL PUSH1 0x44 DUP3 ADD MSTORE PUSH1 0x64 ADD PUSH2 0x191 JUMP JUMPDEST PUSH32 0x468C96F85592DA969EEC95B5219313CEA1E1BC140B9373AEA1947FD8940B046F DUP4 DUP4 DUP4 PUSH1 0x40 MLOAD PUSH2 0x238 SWAP4 SWAP3 SWAP2 SWAP1 PUSH2 0x84D JUMP JUMPDEST PUSH1 0x40 MLOAD DUP1 SWAP2 SUB SWAP1 LOG1 POP POP POP JUMP JUMPDEST PUSH1 0x0 PUSH1 0x20 DUP3 DUP5 SUB SLT ISZERO PUSH2 0x257 JUMPI PUSH1 0x0 DUP1 REVERT JUMPDEST POP CALLDATALOAD SWAP2 SWAP1 POP JUMP JUMPDEST PUSH1 0x0 PUSH1 0x20 DUP3 DUP5 SUB SLT ISZERO PUSH2 0x270 JUMPI PUSH1 0x0 DUP1 REVERT JUMPDEST DUP2 CALLDATALOAD PUSH1 0x1 PUSH1 0x1 PUSH1 0xA0 SHL SUB DUP2 AND DUP2 EQ PUSH2 0x287 JUMPI PUSH1 0x0 DUP1 REVERT JUMPDEST SWAP4 SWAP3 POP POP POP JUMP JUMPDEST PUSH4 0x4E487B71 PUSH1 0xE0 SHL PUSH1 0x0 MSTORE PUSH1 0x41 PUSH1 0x4 MSTORE PUSH1 0x24 PUSH1 0x0 REVERT JUMPDEST PUSH1 0x40 MLOAD PUSH1 0x80 DUP2 ADD PUSH8 0xFFFFFFFFFFFFFFFF DUP2 GT DUP3 DUP3 LT OR ISZERO PUSH2 0x2C7 JUMPI PUSH2 0x2C7 PUSH2 0x28E JUMP JUMPDEST PUSH1 0x40 MSTORE SWAP1 JUMP JUMPDEST PUSH1 0x40 MLOAD PUSH2 0x120 DUP2 ADD PUSH8 0xFFFFFFFFFFFFFFFF DUP2 GT DUP3 DUP3 LT OR ISZERO PUSH2 0x2C7 JUMPI PUSH2 0x2C7 PUSH2 0x28E JUMP JUMPDEST PUSH1 0x40 MLOAD PUSH1 0x1F DUP3 ADD PUSH1 0x1F NOT AND DUP2 ADD PUSH8 0xFFFFFFFFFFFFFFFF DUP2 GT DUP3 DUP3 LT OR ISZERO PUSH2 0x31A JUMPI PUSH2 0x31A PUSH2 0x28E JUMP JUMPDEST PUSH1 0x40 MSTORE SWAP2 SWAP1 POP JUMP JUMPDEST PUSH1 0x0 DUP3 PUSH1 0x1F DUP4 ADD SLT PUSH2 0x333 JUMPI PUSH1 0x0 DUP1 REVERT JUMPDEST DUP2 CALLDATALOAD PUSH8 0xFFFFFFFFFFFFFFFF DUP2 GT ISZERO PUSH2 0x34D JUMPI PUSH2 0x34D PUSH2 0x28E JUMP JUMPDEST PUSH2 0x360 PUSH1 0x1F DUP3 ADD PUSH1 0x1F NOT AND PUSH1 0x20 ADD PUSH2 0x2F1 JUMP JUMPDEST DUP2 DUP2 MSTORE DUP5 PUSH1 0x20 DUP4 DUP7 ADD ADD GT ISZERO PUSH2 0x375 JUMPI PUSH1 0x0 DUP1 REVERT JUMPDEST DUP2 PUSH1 0x20 DUP6 ADD PUSH1 0x20 DUP4 ADD CALLDATACOPY PUSH1 0x0 SWAP2 DUP2 ADD PUSH1 0x20 ADD SWAP2 SWAP1 SWAP2 MSTORE SWAP4 SWAP3 POP POP POP JUMP JUMPDEST PUSH1 0x0 DUP3 PUSH1 0x1F DUP4 ADD SLT PUSH2 0x3A3 JUMPI PUSH1 0x0 DUP1 REVERT JUMPDEST DUP2 CALLDATALOAD PUSH1 0x20 PUSH8 0xFFFFFFFFFFFFFFFF DUP1 DUP4 GT ISZERO PUSH2 0x3C0 JUMPI PUSH2 0x3C0 PUSH2 0x28E JUMP JUMPDEST DUP3 PUSH1 0x5 SHL PUSH2 0x3CF DUP4 DUP3 ADD PUSH2 0x2F1 JUMP JUMPDEST SWAP4 DUP5 MSTORE DUP6 DUP2 ADD DUP4 ADD SWAP4 DUP4 DUP2 ADD SWAP1 DUP9 DUP7 GT ISZERO PUSH2 0x3E9 JUMPI PUSH1 0x0 DUP1 REVERT JUMPDEST DUP5 DUP9 ADD SWAP3 POP JUMPDEST DUP6 DUP4 LT ISZERO PUSH2 0x425 JUMPI DUP3 CALLDATALOAD DUP5 DUP2 GT ISZERO PUSH2 0x407 JUMPI PUSH1 0x0 DUP1 DUP2 REVERT JUMPDEST PUSH2 0x415 DUP11 DUP8 DUP4 DUP13 ADD ADD PUSH2 0x322 JUMP JUMPDEST DUP4 MSTORE POP SWAP2 DUP5 ADD SWAP2 SWAP1 DUP5 ADD SWAP1 PUSH2 0x3EF JUMP JUMPDEST SWAP9 SWAP8 POP POP POP POP POP POP POP POP JUMP JUMPDEST PUSH1 0x0 PUSH1 0x80 DUP3 DUP5 SUB SLT ISZERO PUSH2 0x443 JUMPI PUSH1 0x0 DUP1 REVERT JUMPDEST PUSH2 0x44B PUSH2 0x2A4 JUMP JUMPDEST SWAP1 POP DUP2 CALLDATALOAD PUSH8 0xFFFFFFFFFFFFFFFF DUP1 DUP3 GT ISZERO PUSH2 0x465 JUMPI PUSH1 0x0 DUP1 REVERT JUMPDEST PUSH2 0x471 DUP6 DUP4 DUP7 ADD PUSH2 0x322 JUMP JUMPDEST DUP4 MSTORE PUSH1 0x20 DUP5 ADD CALLDATALOAD SWAP2 POP DUP1 DUP3 GT ISZERO PUSH2 0x487 JUMPI PUSH1 0x0 DUP1 REVERT JUMPDEST PUSH2 0x493 DUP6 DUP4 DUP7 ADD PUSH2 0x322 JUMP JUMPDEST PUSH1 0x20 DUP5 ADD MSTORE PUSH1 0x40 DUP5 ADD CALLDATALOAD SWAP2 POP DUP1 DUP3 GT ISZERO PUSH2 0x4AC JUMPI PUSH1 0x0 DUP1 REVERT JUMPDEST PUSH2 0x4B8 DUP6 DUP4 DUP7 ADD PUSH2 0x322 JUMP JUMPDEST PUSH1 0x40 DUP5 ADD MSTORE PUSH1 0x60 DUP5 ADD CALLDATALOAD SWAP2 POP DUP1 DUP3 GT ISZERO PUSH2 0x4D1 JUMPI PUSH1 0x0 DUP1 REVERT JUMPDEST POP PUSH2 0x4DE DUP5 DUP3 DUP6 ADD PUSH2 0x322 JUMP JUMPDEST PUSH1 0x60 DUP4 ADD MSTORE POP SWAP3 SWAP2 POP POP JUMP JUMPDEST PUSH1 0x0 PUSH1 0x60 DUP3 DUP5 SUB SLT ISZERO PUSH2 0x4FC JUMPI PUSH1 0x0 DUP1 REVERT JUMPDEST PUSH1 0x40 MLOAD PUSH1 0x60 DUP2 ADD PUSH8 0xFFFFFFFFFFFFFFFF DUP3 DUP3 LT DUP2 DUP4 GT OR ISZERO PUSH2 0x520 JUMPI PUSH2 0x520 PUSH2 0x28E JUMP JUMPDEST DUP2 PUSH1 0x40 MSTORE DUP3 SWAP4 POP DUP5 CALLDATALOAD DUP4 MSTORE PUSH1 0x20 DUP6 ADD CALLDATALOAD SWAP2 POP DUP1 DUP3 GT ISZERO PUSH2 0x53F JUMPI PUSH1 0x0 DUP1 REVERT JUMPDEST PUSH2 0x54B DUP7 DUP4 DUP8 ADD PUSH2 0x322 JUMP JUMPDEST PUSH1 0x20 DUP5 ADD MSTORE PUSH1 0x40 DUP6 ADD CALLDATALOAD SWAP2 POP DUP1 DUP3 GT ISZERO PUSH2 0x564 JUMPI PUSH1 0x0 DUP1 REVERT JUMPDEST POP PUSH2 0x571 DUP6 DUP3 DUP7 ADD PUSH2 0x322 JUMP JUMPDEST PUSH1 0x40 DUP4 ADD MSTORE POP POP SWAP3 SWAP2 POP POP JUMP JUMPDEST PUSH1 0x0 DUP1 PUSH1 0x0 PUSH1 0x60 DUP5 DUP7 SUB SLT ISZERO PUSH2 0x593 JUMPI PUSH1 0x0 DUP1 REVERT JUMPDEST DUP4 CALLDATALOAD PUSH8 0xFFFFFFFFFFFFFFFF DUP1 DUP3 GT ISZERO PUSH2 0x5AB JUMPI PUSH1 0x0 DUP1 REVERT JUMPDEST SWAP1 DUP6 ADD SWAP1 PUSH2 0x120 DUP3 DUP9 SUB SLT ISZERO PUSH2 0x5C0 JUMPI PUSH1 0x0 DUP1 REVERT JUMPDEST PUSH2 0x5C8 PUSH2 0x2CD JUMP JUMPDEST DUP3 CALLDATALOAD DUP2 MSTORE PUSH1 0x20 DUP4 ADD CALLDATALOAD DUP3 DUP2 GT ISZERO PUSH2 0x5DE JUMPI PUSH1 0x0 DUP1 REVERT JUMPDEST PUSH2 0x5EA DUP10 DUP3 DUP7 ADD PUSH2 0x322 JUMP JUMPDEST PUSH1 0x20 DUP4 ADD MSTORE POP PUSH1 0x40 DUP4 ADD CALLDATALOAD DUP3 DUP2 GT ISZERO PUSH2 0x602 JUMPI PUSH1 0x0 DUP1 REVERT JUMPDEST PUSH2 0x60E DUP10 DUP3 DUP7 ADD PUSH2 0x322 JUMP JUMPDEST PUSH1 0x40 DUP4 ADD MSTORE POP PUSH1 0x60 DUP4 ADD CALLDATALOAD DUP3 DUP2 GT ISZERO PUSH2 0x626 JUMPI PUSH1 0x0 DUP1 REVERT JUMPDEST PUSH2 0x632 DUP10 DUP3 DUP7 ADD PUSH2 0x322 JUMP JUMPDEST PUSH1 0x60 DUP4 ADD MSTORE POP PUSH1 0x80 DUP4 ADD CALLDATALOAD PUSH1 0x80 DUP3 ADD MSTORE PUSH1 0xA0 DUP4 ADD CALLDATALOAD PUSH1 0xA0 DUP3 ADD MSTORE PUSH1 0xC0 DUP4 ADD CALLDATALOAD DUP3 DUP2 GT ISZERO PUSH2 0x65E JUMPI PUSH1 0x0 DUP1 REVERT JUMPDEST PUSH2 0x66A DUP10 DUP3 DUP7 ADD PUSH2 0x322 JUMP JUMPDEST PUSH1 0xC0 DUP4 ADD MSTORE POP PUSH1 0xE0 DUP4 ADD CALLDATALOAD DUP3 DUP2 GT ISZERO PUSH2 0x682 JUMPI PUSH1 0x0 DUP1 REVERT JUMPDEST PUSH2 0x68E DUP10 DUP3 DUP7 ADD PUSH2 0x392 JUMP JUMPDEST PUSH1 0xE0 DUP4 ADD MSTORE POP PUSH2 0x100 DUP1 DUP5 ADD CALLDATALOAD DUP4 DUP2 GT ISZERO PUSH2 0x6A8 JUMPI PUSH1 0x0 DUP1 REVERT JUMPDEST PUSH2 0x6B4 DUP11 DUP3 DUP8 ADD PUSH2 0x322 JUMP JUMPDEST DUP3 DUP5 ADD MSTORE POP POP DUP1 SWAP6 POP POP PUSH1 0x20 DUP7 ADD CALLDATALOAD SWAP2 POP DUP1 DUP3 GT ISZERO PUSH2 0x6D2 JUMPI PUSH1 0x0 DUP1 REVERT JUMPDEST PUSH2 0x6DE DUP8 DUP4 DUP9 ADD PUSH2 0x431 JUMP JUMPDEST SWAP4 POP PUSH1 0x40 DUP7 ADD CALLDATALOAD SWAP2 POP DUP1 DUP3 GT ISZERO PUSH2 0x6F4 JUMPI PUSH1 0x0 DUP1 REVERT JUMPDEST POP PUSH2 0x701 DUP7 DUP3 DUP8 ADD PUSH2 0x4EA JUMP JUMPDEST SWAP2 POP POP SWAP3 POP SWAP3 POP SWAP3 JUMP JUMPDEST PUSH1 0x0 DUP2 MLOAD DUP1 DUP5 MSTORE PUSH1 0x0 JUMPDEST DUP2 DUP2 LT ISZERO PUSH2 0x731 JUMPI PUSH1 0x20 DUP2 DUP6 ADD DUP2 ADD MLOAD DUP7 DUP4 ADD DUP3 ADD MSTORE ADD PUSH2 0x715 JUMP JUMPDEST DUP2 DUP2 GT ISZERO PUSH2 0x743 JUMPI PUSH1 0x0 PUSH1 0x20 DUP4 DUP8 ADD ADD MSTORE JUMPDEST POP PUSH1 0x1F ADD PUSH1 0x1F NOT AND SWAP3 SWAP1 SWAP3 ADD PUSH1 0x20 ADD SWAP3 SWAP2 POP POP JUMP JUMPDEST PUSH1 0x0 DUP2 MLOAD DUP1 DUP5 MSTORE PUSH1 0x20 DUP1 DUP6 ADD SWAP5 POP DUP5 DUP3 PUSH1 0x5 SHL DUP7 ADD DUP3 DUP7 ADD PUSH1 0x0 JUMPDEST DUP6 DUP2 LT ISZERO PUSH2 0x79D JUMPI DUP4 DUP4 SUB DUP10 MSTORE PUSH2 0x78B DUP4 DUP4 MLOAD PUSH2 0x70B JUMP JUMPDEST SWAP9 DUP6 ADD SWAP9 SWAP3 POP SWAP1 DUP5 ADD SWAP1 PUSH1 0x1 ADD PUSH2 0x773 JUMP JUMPDEST POP SWAP1 SWAP8 SWAP7 POP POP POP POP POP POP POP JUMP JUMPDEST PUSH1 0x0 DUP2 MLOAD PUSH1 0x80 DUP5 MSTORE PUSH2 0x7BF PUSH1 0x80 DUP6 ADD DUP3 PUSH2 0x70B JUMP JUMPDEST SWAP1 POP PUSH1 0x20 DUP4 ADD MLOAD DUP5 DUP3 SUB PUSH1 0x20 DUP7 ADD MSTORE PUSH2 0x7D8 DUP3 DUP3 PUSH2 0x70B JUMP JUMPDEST SWAP2 POP POP PUSH1 0x40 DUP4 ADD MLOAD DUP5 DUP3 SUB PUSH1 0x40 DUP7 ADD MSTORE PUSH2 0x7F2 DUP3 DUP3 PUSH2 0x70B JUMP JUMPDEST SWAP2 POP POP PUSH1 0x60 DUP4 ADD MLOAD DUP5 DUP3 SUB PUSH1 0x60 DUP7 ADD MSTORE PUSH2 0x80C DUP3 DUP3 PUSH2 0x70B JUMP JUMPDEST SWAP6 SWAP5 POP POP POP POP POP JUMP JUMPDEST DUP1 MLOAD DUP3 MSTORE PUSH1 0x0 PUSH1 0x20 DUP3 ADD MLOAD PUSH1 0x60 PUSH1 0x20 DUP6 ADD MSTORE PUSH2 0x834 PUSH1 0x60 DUP6 ADD DUP3 PUSH2 0x70B JUMP JUMPDEST SWAP1 POP PUSH1 0x40 DUP4 ADD MLOAD DUP5 DUP3 SUB PUSH1 0x40 DUP7 ADD MSTORE PUSH2 0x80C DUP3 DUP3 PUSH2 0x70B JUMP JUMPDEST PUSH1 0x60 DUP2 MSTORE DUP4 MLOAD PUSH1 0x60 DUP3 ADD MSTORE PUSH1 0x0 PUSH1 0x20 DUP6 ADD MLOAD PUSH2 0x120 DUP1 PUSH1 0x80 DUP6 ADD MSTORE PUSH2 0x876 PUSH2 0x180 DUP6 ADD DUP4 PUSH2 0x70B JUMP JUMPDEST SWAP2 POP PUSH1 0x40 DUP8 ADD MLOAD PUSH1 0x5F NOT DUP1 DUP7 DUP6 SUB ADD PUSH1 0xA0 DUP8 ADD MSTORE PUSH2 0x894 DUP5 DUP4 PUSH2 0x70B JUMP JUMPDEST SWAP4 POP PUSH1 0x60 DUP10 ADD MLOAD SWAP2 POP DUP1 DUP7 DUP6 SUB ADD PUSH1 0xC0 DUP8 ADD MSTORE PUSH2 0x8B1 DUP5 DUP4 PUSH2 0x70B JUMP JUMPDEST SWAP4 POP PUSH1 0x80 DUP10 ADD MLOAD PUSH1 0xE0 DUP8 ADD MSTORE PUSH1 0xA0 DUP10 ADD MLOAD SWAP2 POP PUSH2 0x100 DUP3 DUP2 DUP9 ADD MSTORE PUSH1 0xC0 DUP11 ADD MLOAD SWAP3 POP DUP2 DUP8 DUP7 SUB ADD DUP5 DUP9 ADD MSTORE PUSH2 0x8E6 DUP6 DUP5 PUSH2 0x70B JUMP JUMPDEST SWAP5 POP PUSH1 0xE0 DUP11 ADD MLOAD SWAP4 POP DUP2 DUP8 DUP7 SUB ADD PUSH2 0x140 DUP9 ADD MSTORE PUSH2 0x904 DUP6 DUP6 PUSH2 0x758 JUMP JUMPDEST SWAP5 POP DUP1 DUP11 ADD MLOAD SWAP4 POP POP DUP1 DUP7 DUP6 SUB ADD PUSH2 0x160 DUP8 ADD MSTORE POP POP PUSH2 0x924 DUP3 DUP3 PUSH2 0x70B JUMP JUMPDEST SWAP2 POP POP DUP3 DUP2 SUB PUSH1 0x20 DUP5 ADD MSTORE PUSH2 0x939 DUP2 DUP7 PUSH2 0x7AA JUMP JUMPDEST SWAP1 POP DUP3 DUP2 SUB PUSH1 0x40 DUP5 ADD MSTORE PUSH2 0x94D DUP2 DUP6 PUSH2 0x815 JUMP JUMPDEST SWAP7 SWAP6 POP POP POP POP POP POP JUMP INVALID LOG2 PUSH5 0x6970667358 0x22 SLT KECCAK256 0xC1 0xD5 SWAP11 DUP10 0xB4 PUSH29 0xE5B9D1A4FF0A12BDFF95DEBED94C5858B0AFF1A63CD105AA9ACB64736F PUSH13 0x634300080C0033000000000000 ",
  "sha1": "f49a941501f5fa0d83fead13b35ef1d93e66494c",
  "source": "//SPDX-License-Identifier: Unlicense\npragma solidity ^0.8.0;\n\ncontract Sadaiv {\n    struct Contributor {\n        uint256 builderId;\n        string builderName;\n        string builderAvatarUrl;\n    }\n    struct Build {\n        string branch;\n        string commitMessage;\n        string commitHash;\n        string cid;\n    }\n\n    struct Repository {\n        uint256 id;\n        string name;\n        string fullname;\n        string description;\n        uint256 ownerId;\n        uint256 size;\n        string default_branch;\n        string[] topics;\n        string language;\n    }\n\n    event NewBuildCreated(\n        Repository repository,\n        Build build,\n        Contributor contributor\n    );\n    event VerifiedBuilder(uint256 githubId, address walletAddress);\n\n    address private owner;\n    mapping(uint256 => address) public builderMapping;\n\n    constructor() {\n        owner = msg.sender;\n    }\n\n    modifier onlyOwner() {\n        require(msg.sender == owner, \"Not an owner\");\n        _;\n    }\n\n    function createBuild(\n        Repository memory repo, Build memory build, Contributor memory contributor\n    ) public onlyOwner {\n        \n        emit NewBuildCreated(repo, build, contributor);\n    }\n\n    // Verifies the builder from Github Authentication and sets the wallet address.\n    function verifyBuilder(uint256 githubId) public {\n        if (builderMapping[githubId] == address(0)) {\n            return;\n        }\n\n        builderMapping[githubId] = msg.sender;\n        emit VerifiedBuilder(githubId, msg.sender);\n    }\n\n    function delegateOwnership(address newOwner) public onlyOwner {\n        owner = newOwner;\n    }\n}\n",
  "sourcePath": "contracts/Sadaiv.sol",
  "type": "contract"
}